:020000040800F2
:1000000010130020990100081F1D0008C7180008E0
:100010001D1D0008770600089D2300080000000051
:1000200000000000000000000000000001010008C6
:10003000C90600080000000045010008511E000824
:10004000B3010008B3010008B3010008B3010008C0
:10005000B3010008B3010008B30100082D07000830
:10006000B3010008B3010008B3010008B3010008A0
:10007000B3010008B3010008B3010008B301000890
:10008000B3010008B3010008B3010008B301000880
:10009000B3010008B3010008B30100088907000894
:1000A000B3010008F91E0008B3010008B3010008FD
:1000B000B3010008051F0008B3010008B3010008E0
:1000C000B3010008B3010008B3010008B301000840
:1000D000B3010008B301000801230008B3010008C0
:1000E000CD060008B3010008B3010008DFF80CD00A
:1000F00000F0A0FA00480047452500081013002032
:10010000224B19680868B0E8F00F80F30988BFF344
:100110006F8F4FF0000080F311884EF00D0E704786
:100120000000000006480068006880F3088862B696
:1001300061B6BFF34F8FBFF36F8F00DF00BF00BF0B
:1001400008ED00E0EFF30980BFF36F8F0F4B1A68E3
:1001500020E9F00F106008B54FF0500080F31188CF
:10016000BFF34F8FBFF36F8F02F0F4FD4FF000002D
:1001700080F31188BDE8084019680868B0E8F00FFE
:1001800080F30988BFF36F8F704700BFB000002075
:10019000EFF3058070470000064880470648004797
:1001A000FEE7FEE7FEE7FEE7FEE7FEE7FEE7FEE727
:1001B000FEE7FEE7B11E0008ED000008202A04DB80
:1001C000203A21FA02F00021704721FA02F3D040D0
:1001D000C2F12002914008431946704740EA0103EA
:1001E0009B0703D009E008C9121F08C0042AFAD2ED
:1001F00003E011F8013B00F8013B521EF9D27047B1
:10020000F0B480EA0102D40F4200B2EB410F02D2F7
:100210000246084611464A0042D0C30DDDB2C1F382
:10022000C752AD1A202D35DAC1F3160141F4000290
:1002300004B15242C5F1200602FA06F12A411044E7
:10024000B3EBD05F23D0C4B1012DA0EBC35009DCC8
:10025000F0BC4FF0004202EAC352DBB200F50000EE
:1002600000F05DB9400000F1807000EBC350A0F1D8
:10027000807040EAD170490009E0490841EAC07144
:10028000A0EBC35000F50000400800EBC350F0BCE9
:1002900000F03CB96142012202EB4101001BF6E78C
:1002A000F0BC704781F00041AAE780F00040A7E76A
:1002B00080EA010210B502F00043400022D04A005B
:1002C0001FD0010E01EB1261C0F35600C2F35602BB
:1002D00040F4000042F40002A0FB022000047F3939
:1002E000140400D0401C50EA124001D44000491EC2
:1002F000C2B20C0604EBD010401C4008802A02D089
:1003000003E0002010BD20F00100002900DA0020E9
:10031000184310BD30B480EA010202F0004530F00D
:10032000004221F0004013D090B1C30DD40DC2F3B0
:100330001601C0F31600E41A41F4000140F4000273
:100340007D34914201D3641C00E04900002C02DAA4
:1003500030BC002070474FF400000023914201D3CD
:10036000891A034340084FEA4101F7D151B1914244
:1003700002D14FF0004105E002D24FF0010101E04F
:100380006FF0010103EBC450284430BC00F0BEB84C
:100390002DE9FE4F81EA030404F0004421F00041FE
:1003A00000944FF0000B23F0004350EA01045ED0AC
:1003B00052EA03045BD0C3F30A54C1F30A552C4438
:1003C000A4F2F3340194A0FB0254C1F3130141F4ED
:1003D0008011C3F3130343F4801301FB024400FBB9
:1003E000034E840A970A44EA815447EA8357A4FBE0
:1003F000076802958D0A05FB07854FEA932C04FBDD
:100400000C542705029D4FEA065847EA1637B5EB0C
:1004100008056EEB070C870E920E47EA811742EA39
:100420008312A7FB0201B6EB0B0164EB00042B0D5A
:1004300043EA0C335E1844EB1C50DA465146E7FBA6
:100440000201C5F313044FEA0B3343EA14534FEA96
:100450000432019C43EA0603A4F10C040294009CBC
:10046000CDE900B400F098F803B0BDE8F08F0020AB
:100470000146F9E7C10F80EAE0700844CA079623F5
:10048000002100F04CB80EB5C10F80EAE0700844BE
:10049000CA07002140F233438DE80E000A460B469E
:1004A00000F07AF803B000BD00F0004220F00040F8
:1004B000C10DC0F3160040F400007F2901DA0020CE
:1004C0007047962903DCC1F19601C84001E09639D6
:1004D0008840002AF4D040427047C1F30A5210B558
:1004E000C1F3130140F2FF3341F480119A4201DA63
:1004F000002010BD40F233439A42A2F2334203DCA3
:100500005242FFF75BFE10BD904010BD0029A8BF0E
:100510007047401C490008BF20F00100704710B42C
:10052000B0FA80FC00FA0CF050EA010404BF10BCE1
:10053000704749B1CCF1200421FA04F411FA0CF10E
:1005400018BF012121430843A3EB0C01CB1D4FEA47
:1005500000614FEA102042BF002010BC704700EB42
:10056000C35010440029A4BF10BC7047401C490070
:1005700008BF20F0010010BC704710B5141E73F1C5
:10058000000408DA401C41F1000192185B411A4353
:1005900001D120F0010010BD2DE9F04D92469B469F
:1005A00011B1B1FA81F202E0B0FA80F22032904645
:1005B00000F052F804460F4640EA0A0041EA0B01F7
:1005C00053465A46084313D0114653EA010019D046
:1005D000C8F140025046FFF7F1FD05460E46504671
:1005E0005946424600F038F8084305D0012004E09F
:1005F00020463946BDE8F08D0020054346EAE07606
:100600002C4337430A986305E40AA0EB0800002254
:10061000FD0A44EA47540A3002D500200146E9E7C2
:10062000010510196941DDE9084500196941BDE876
:10063000F04DA2E7064C074D06E0E06840F00103EC
:1006400094E8070098471034AC42F6D3FFF752FD08
:10065000CC300008EC300008202A04DB203A00FAF5
:1006600002F1002070479140C2F1200320FA03F309
:10067000194390407047FEE7064A10B55368064993
:10068000064C0968B1FBF4F141435068C01A884236
:10069000FBD310BD001000E08800002040420F0096
:1006A00007480168C9010AD4016841F080710160FE
:1006B000044800214160016841F001010160704778
:1006C000FCED00E0001000E07047000010B54FF4B2
:1006D000006421460E4800F0D1F901000D480E4A91
:1006E000406801D010600EE050600C490C4B12685D
:1006F0000968801AB1FBF3F1B0FBF1F00949086019
:100700000949012008702046BDE8104000F0CCB82F
:10071000000C0140001000E0600000208800002074
:1007200040420F00280000200500002010B50221E3
:100730000E4800F0A3F90E4A00280E49506801D077
:1007400008610EE048610C4A0C4B09691268401AB6
:10075000B2FBF3F2B0FBF2F009490860094901204D
:100760000870BDE81040022000F09EB8000801406B
:10077000001000E0600000208800002040420F00D0
:10078000240000200400002010B54FF4807421469E
:100790000E4800F073F901000D480E4A406801D080
:1007A00090600EE0D0600C490C4B92680968801A8A
:1007B000B1FBF3F1B0FBF1F00949086009490120F0
:1007C00008702046BDE8104000F06EB8000C0140F3
:1007D000001000E0600000208800002040420F0070
:1007E0002C0000200600002010B590F821100024F5
:1007F000022903D00421816301243DE001680A68D5
:1008000022F00E020A6001680A6822F001020A6002
:100810001A4A0168914201D1012121E0174A14329C
:10082000914201D110211BE0144A2832914201D19A
:10083000891515E0114A3C32914201D189140FE02B
:100840000E4A5032914202D14FF4803108E00B4AF7
:100850006432914202D14FF4801101E04FF0807177
:10086000064A083A5160012180F82110002180F8E1
:100870002010416B01B18847204610BD080002409E
:1008800070B5044600F004F90546601C02D0044827
:100890000078044400F0FCF8401BA042FAD370BD7D
:1008A0007C00002070470000044910B50A6802422D
:1008B00002D00860FFF7F6FF10BD000014040140ED
:1008C0002DE9F84FDFF890A100220AF1040B14463D
:1008D00001274FF00F090BF1040E00BF0B6807FA58
:1008E00004F52B40AB4274D1DFF870C14E68A6EB23
:1008F0000C0866452BD00DDC032E34D005DC36B356
:10090000012E19D0022E2FD11BE0112E16D0122E3F
:100910002AD119E0B8F5881F19D006DCB8F5803F58
:1009200015D0B8F5801F1FD111E0B8F5001F0ED00B
:10093000B8F5041F18D10AE0CA6815E0CA68121D8C
:1009400012E0CA6808320FE0CA680C320CE08A680C
:100950002AB1012A4FF0080203D0456104E00422C5
:1009600002E0056100E00022FF2B01D8064601E00D
:1009700000F104064FEA840501D9A5F12005D6F857
:1009800000C009FA05F82CEA080C02FA05F54CEA51
:10099000050CC6F800C04D68ED0057D5304DAE6966
:1009A00046F00106AE61AD6924F0030605F00105CD
:1009B00000952C4D06EB050CDCF80850A6074FEA15
:1009C000167809FA08F6B543274EB04202D1002640
:1009D00010E03BE0254EB04201D101260AE0244E52
:1009E000B04201D1022605E0224EB04201D10326D9
:1009F00000E0042606FA08F62E43CCF808604D689D
:100A0000DAF80060ED03554601D51E4300E09E4331
:100A10002E604D68DBF80060AD035D4601D51E43D6
:100A200000E09E432E604D68DEF80060ED027546E2
:100A300001D51E4300E09E432E604D68AD020E4D71
:100A40002E6801D51E4300E09E432E60641C102CCE
:100A5000FFF444AFBDE8F88F00040140000011101E
:100A6000001002400000014000080140000C01405D
:100A700000100140001401400C040140806808404F
:100A800000D0012070470AB1016170470904FBE7FB
:100A900001488068704700007C000020024881689F
:100AA00002781144816070477C000020074810B52F
:100AB000016841F010010160032000F0B7F8002048
:100AC00000F006F800F03EF8002010BD00200240C3
:100AD00000B5014687B00022192000F087F81920E0
:100AE00000F078F81348816941F400618161806900
:100AF00005A900F400600690684600F053F900F084
:100B000087F90D490D4AB0FBF1F10D48491E02600D
:100B1000416040F2E7320021C0E90321816000F02A
:100B200089FB10B1012007B000BD054800F0BCFBF7
:100B3000F9E700000010024040420F00002C014085
:100B4000DC010020214808B5816941F00101816183
:100B5000816901F001010091C16941F08051C161D9
:100B6000C06900F080500090032000F05FF8002280
:100B700011466FF00B0000F039F8002211466FF0BB
:100B80000A0000F033F8002211466FF0090000F06F
:100B90002DF800221146501F00F028F800221146BF
:100BA000101F00F023F800220F21901E00F01EF805
:100BB00000220F21501E00F019F80548416821F06D
:100BC000E06141F00071416008BD0000001002408A
:100BD0000000014000F01F02012191404009800007
:100BE00000F1E020C0F8001170470000F0B40E4B97
:100BF0001B680C46C3F30223C3F10705042D00D97B
:100C00000425191D072901D2002300E0DB1E01265F
:100C100006FA05F1491E214099409E40761E164075
:100C20003143F0BC01F07CB80CED00E0064900F067
:100C3000070208684FF6FF03184040EA0220034A03
:100C400010430860704700000CED00E00000FA055A
:100C50002DE9F047DFF83C8105460E46D8F8000044
:100C600000F00700B0420CD2D8F8001021F00701C4
:100C70003143C8F80010D8F8000000F00700B04277
:100C800063D12878444C800705D56068A96820F0B6
:100C9000F000084360602878C00745D068680128E4
:100CA00016D02168022816D0890700294DDA61681C
:100CB00021F0030101436160FFF7EAFE696807461E
:100CC00041F2883001290FD00229814619D027E04E
:100CD00021688903E9E78901E7E700BFFFF7D8FE4C
:100CE000C11B494501D918E081466068C0F3810005
:100CF0000128F3D118E000BFFFF7CAFEC11B494528
:100D00000BD86068C0F381000228F5D10CE000BF69
:100D1000FFF7BEFEC11B494502D90320BDE8F0879D
:100D2000606810F00C0FF3D1D8F80010404601F0C5
:100D30000701B1420BD9016821F00701314301607D
:100D4000006800F00700B04201D00120E6E72878F3
:100D5000400705D56068E96820F4E06008436060FA
:100D60002878000706D56068296920F4605040EAB9
:100D7000C100606000F05CF86168084AC1F30311CB
:100D8000515CC840064908600020FFF7A1FE002022
:100D9000C4E7000000200240001002408C30000830
:100DA000880000200F2202600C4A536803F00303FE
:100DB0004360536803F0F0038360536803F4E06317
:100DC000C36052684FF4E06303EAD2020261044850
:100DD000006800F007000860704700000010024043
:100DE0000020024001480068704700008800002091
:100DF0000448054900684968044AC1F30221515C6E
:100E0000C840704788000020001002409C30000855
:100E10000448054900684968044AC1F3C221515C8D
:100E2000C840704788000020001002409C30000835
:100E300012A185B00FC98DE80F0014A0144A0068F4
:100E400004905168134801F00C03042B10D0082BB8
:100E50000ED1C1F38343C9031DF803000AD55168BD
:100E600004AAC1F34041515C0A4A5043B0FBF1F07F
:100E700005B0704708494843FAE70000020304053B
:100E8000060708090A0B0C0D0E0F101001020000D6
:100E90000010024000127A0000093D002DE9F84FD1
:100EA00004460078B94DC00748D06868C0F3810097
:100EB000012807D06868C0F38100022809D168685A
:100EC000C00306D52868800338D5606800286FD035
:100ED00034E06068B0F5803F0BD010B1B0F5A02FC2
:100EE00011D0286820F480302860286820F4802001
:100EF00002E0286840F480302860606888B1FFF71D
:100F0000C7FD064609E0286840F480202860F0E725
:100F1000FFF7BEFD801B642875D828688003F7D5CD
:100F20000CE0FFF7B5FD064605E000BFFFF7B0FD9A
:100F3000801B6428F0D828688003F7D42078944E6A
:100F400080074FF001094FF000083BD5686810F0AA
:100F50000C0F07D06868C0F38100022809D16868C7
:100F6000C00306D42868800714D5206901281FD142
:100F700010E02069B0B1C6F80090FFF789FD074680
:100F800005E000BFFFF784FDC01B0228C4D8286815
:100F90008007F7D52868616920F0F80040EAC100B1
:100FA00028600FE0C6F80080FFF772FD074606E0F4
:100FB000E9E000BFFFF76CFDC01B022823D82868BA
:100FC0008007F7D4207800072CD57248A169D9B1E1
:100FD000C0F80090FFF75CFD074604E0FFF758FDFE
:100FE000C01B02280FD8686A8007F7D56A484FF4FB
:100FF000FA510068B0FBF1F0009000BF0098411E6C
:101000000091FAD20EE080E0C0F80080FFF740FDCA
:10101000074604E0FFF73CFDC01B022875D8686A4C
:101020008007F7D42078400760D5E8690027C00022
:1010300008D4E86940F08050E861E869012700F0D1
:101040008050009055480168C90513D40168834653
:1010500041F480710160FFF71BFD824606E000BF8E
:10106000FFF716FDA0EB0A0064284ED8DBF800005D
:10107000C005F5D5E06801280AD008B1052813D0CD
:10108000286A20F001002862286A20F0040002E0AB
:10109000286A40F001002862E06841F2883B98B17C
:1010A000FFF7F6FC82460BE0286A40F00400286255
:1010B000EEE700BFFFF7ECFCA0EB0A0159455AD858
:1010C000286A8007F6D50CE0FFF7E2FC824605E0CF
:1010D000FFF7DEFCA0EB0A0159454CD8286A8007CF
:1010E000F6D41FB1E86920F08050E861E06988B368
:1010F0006968C1F38101022945D00228C6F86080E1
:1011000004D0FFF7C5FC044638E034E0FFF7C0FC2C
:10111000074604E0FFF7BCFCC01B02282BD8286858
:101120008001F7D4206AB0F5803F05D16868A168D6
:1011300020F4003008436860D4E908010843696876
:1011400021F4741108436860C6F86090FFF7A0FCB2
:10115000044606E015E000BFFFF79AFC001B0228DA
:1011600009D828688001F7D50BE000BFFFF790FC95
:10117000001B022802D90320BDE8F88F28688001EF
:10118000F4D40020F8E70120F6E700000010024048
:10119000000042428004424288000020007000406B
:1011A0004FF0E0210428086903D020F00400086112
:1011B000704740F00400FAE710B5401EB0F1807FA0
:1011C00001D3012010BD4FF0E02460610F216017B2
:1011D00000F0A6FD0020A06107202061002010BDC6
:1011E0007047704730B590F83C20012A20D001228A
:1011F00080F83C20022380F83D3003685C6824F0CE
:1012000070045C6003685C680D682C435C60036874
:101210009C6824F080049C6003689C6849680C43C7
:101220009C6080F83D20002180F83C10084630BDCD
:10123000022030BD10B5040003D094F83D0010B179
:1012400007E0012010BD002084F83C00204600F09B
:101250000DF8022084F83D00211D206800F068FE92
:10126000012084F83D00002010BD000008B5006892
:101270000B49884212D10B48C16941F00201C1619A
:10128000C069002200F00200009005211D20FFF738
:10129000ADFCBDE808401D20FFF79CBC08BD000068
:1012A00000040040001002400168CA6842F00102D8
:1012B000CA600068016841F00101016000207047C8
:1012C00070B5044690F83C00012817D0012584F839
:1012D0003C50022084F83D002068826822F07702AA
:1012E00022F47F4282600868502837D00DDC202825
:1012F00059D005DC88B3102841D151E0022070BDDF
:10130000302853D040283AD13FE060282ED07028B2
:101310000BD0B0F5805F03D0B0F5005F2FD110E0A7
:101320002068816821F0070115E0CB68D1E901212F
:10133000206800F033FE2168886840F077008860FC
:101340001DE0CB68D1E90121206800F027FE20686C
:10135000816841F48041816011E01EE0CA684968FB
:10136000206800F02DFE5021206806E0CA68496818
:10137000206800F036FE6021206800F019FE84F835
:101380003D50002084F83C0070BDCA684968206860
:1013900000F016FE40212068EFE700212068ECE70E
:1013A00010212068E9E720212068E6E73021206845
:1013B000E3E7704770B50446006801694FF0000527
:1013C000C943890715D4C168C943890711D4E91EE7
:1013D000016101202077206880698007204602D0C3
:1013E000FFF7E7FF04E000F098F8204600F096F8D9
:1013F000257720680169C943490717D4C168C943E3
:10140000490713D46FF0040101610220207720689E
:10141000806910F4407F204602D0FFF7CAFF04E045
:1014200000F07BF8204600F079F825772068016904
:10143000C943090716D4C168C943090712D46FF01C
:1014400008010161042020772068C06980072046D8
:1014500002D0FFF7AEFF04E000F05FF8204600F096
:101460005DF8257720680169C943C90617D4C168AA
:10147000C943C90613D46FF0100101610820207719
:101480002068C06910F4407F204602D0FFF791FF2A
:1014900004E000F042F8204600F040F8257720688C
:1014A0000169C943C90708D1C168C943C90704D143
:1014B000891E0161204600F033F820680169C943A4
:1014C000090609D4C168C943090605D46FF0800133
:1014D00001612046FFF784FE20680169C94349067F
:1014E00009D4C168C943490605D46FF040010161C0
:1014F000204600F01FF820680169C94389060BD413
:10150000C168C943890607D46FF0200101612046F4
:10151000BDE87040FFF765BE70BD704770470000C2
:1015200000680349884201D1FFF7B8BA704700004C
:10153000002C01407047704770B50268044610687F
:10154000D168536910F00F0F50D003F0010501F47A
:10155000907635435DD0C20705D0CA0503D5E26B4E
:1015600042F00102E263420705D5DA0703D0E26BDD
:1015700042F00202E263820705D5DA0703D0E26B8C
:1015800042F00402E263020705D5DA0703D0E26BFA
:1015900042F00802E263E26B002A33D0800604D5F1
:1015A000880602D5204600F044FD20684069E16BC2
:1015B000C0F38010090700D428B3204600F02BFDAB
:1015C0002068416949061AD5416921F0400141610D
:1015D000606BA0B11B494163606BFFF705F9002800
:1015E00010D0606B416BBDE870400847830610D592
:1015F0008B060ED52046BDE8704000F01ABD20468F
:10160000FFF799FF70BD2046FFF795FF0020E063CC
:1016100070BD030606D50B0604D52046BDE8704014
:1016200000F00ABE4006F3D54806F1D5D168204641
:1016300021F04001D160202184F8391000F042F9F6
:1016400070BD00000720000870B5040004D094F8B5
:101650003900002510B106E0012070BD84F8385033
:10166000204600F023F8242084F839002068C1685F
:1016700021F40051C160204600F026FD2068016978
:1016800021F4904101612068416921F02A01416102
:101690002068C16841F40051C160E563202084F8EE
:1016A000390084F83A00002070BD000070B5244E67
:1016B00003680024234902200322234D86B0B3424D
:1016C00019D18B6943F480438B618969039201F4DA
:1016D000804104910102CDE9001069462846FFF7D8
:1016E000EFF82815CDE90004694628460294FFF773
:1016F000E7F806B070BD154EB342FAD1CB6943F49A
:101700000033CB61C969039201F4003104910421D3
:10171000CDE9001069462846FFF7D2F80820CDE948
:101720000004694628460294FFF7CAF80022052102
:101730002620FFF75BFA2620FFF74CFAD9E70000D6
:101740000038014000100240000801400044004001
:101750002DE9F843044690F83A00994616460D469E
:1017600020284FD195B18EB194F83800012849D086
:10177000012084F838000027E763222084F83A002B
:10178000FFF786F9A6858046E68531E00120BDE8B1
:10179000F883E08D401EE085A0684346B0F5805F89
:1017A0004FF000024FF020012046CDF8009004D009
:1017B00000F073FD98B10320E9E700F06EFD00280A
:1017C000F9D1206900282068406803D0C1B225F80B
:1017D000011B0DE0C0F3080125F8021B08E0206999
:1017E00000282068406801D000F07F0005F8010B58
:1017F000E08D0028CDD1202084F83A0084F838709C
:101800000020C4E70220C2E770472DE9F8430446F0
:1018100090F839001F4616460D46202850D1A5B134
:101820009EB194F8380001284AD0012084F838008D
:101830004FF00008C4F83C80212084F83900FFF7FD
:1018400027F9A6848146E68426E00120BDE8F883D6
:10185000E08C401EE084A0684B46B0F5805F4FF0FE
:1018600000024FF080012046009703D000F015FDE4
:10187000E8B90DE000F011FDC8B928882168C0F36F
:1018800008004860206908B16D1C05E0AD1C03E04C
:10189000216815F8010B4860E08C0028D8D14B4630
:1018A000002240212046009700F0F7FC08B10320F9
:1018B000CCE7202084F8390084F838800020C5E780
:1018C0000220C3E77047FEE72DE9F0412C4886B0BF
:1018D000816941F020018161816901F02001049159
:1018E000816941F004018161816901F00401049181
:1018F000816941F0080181618069DFF8888000F02A
:10190000080041F201070490002239464046FFF7E3
:10191000BAF802251C4E00240095CDE90164694601
:101920001A48FEF7CDFF01AA0120009782E8310096
:1019300069464046FEF7C4FF4FF41060CDE900064B
:10194000694602944046FEF7BBFF002205210720AE
:10195000FFF74CF90720FFF73DF90022052117207A
:10196000FFF744F91720FFF735F900220521282059
:10197000FFF73CF92820FFF72DF906B0BDE8F0810C
:1019800000100240000C014000003110000801402E
:1019900010B5144886B01249016040F21F3100248E
:1019A000C0E9011442F20F71C0E903148021816182
:1019B000FFF740FC00B1FEE74FF48050009069460D
:1019C0000848FFF77DFC00B1FEE7049404A9054830
:1019D0000594FFF707FC002800D0FEE706B010BD15
:1019E00000040040EC0000204FF47A79484600F0F3
:1019F0001FFEC84C02E0642000F01AFE2078002888
:101A0000F9D00126A670206BDFF80CB302274FF443
:101A1000805A4FF0030800252064E06805280DD2A5
:101A2000DFE800F0030D32458800657001F06AF8C8
:101A30000A2000F0FDFD606C2D2836DA62E1206B93
:101A40002064606C2D2871DB6670352000F0ECFCA2
:101A5000E06C48456BDD002251465846FFF713F80D
:101A60000420E0604EE1E06BE76026652064E571EC
:101A700048E1A16C2D29E1DB8142DFDD606BE7608D
:101A800026652064E6713DE16570D9E001F01AF841
:101A900002E000BF00F036FD206D012802D00328CF
:101AA00003D02FE1C4F80C802CE1E6602AE16570D8
:101AB000E07910B1012822D024E1606C00F08AFCAA
:101AC00020B15A21A06C00F08BFC88B1A06C5A2880
:101AD00012DB606C2D2805DB352000F0A5FC4846A4
:101AE00000F0A6FD206BC4F850802064E6711FE072
:101AF000352000F099FC05E101F004F802E1606C8A
:101B000000F068FC28B15A21E06C00F069FC002864
:101B1000EED0E06C5A28EFDB606C2D2805DB352019
:101B200000F082FC484600F083FDC5E07AE077E0F3
:101B3000E760E7E06570206B2064606C2D2805DBB2
:101B4000352000F071FC484600F072FD00F0DAFF2D
:101B5000E06B2064202000F0D5FCA770C9E00228CB
:101B60000ED1E06805280BD2DFE800F0030B6A71A4
:101B7000AC00206BE66000212064C4E9161165709A
:101B8000C0E0206B2064E17837292BD1D4E91623FB
:101B90000A3A73F1000225D32D2801DB2D3801E02C
:101BA00000F23B104FF4B47190FBF1F201FB120014
:101BB00020635A3090FBF1F201FB120060635A304F
:101BC00090FBF1F201FB1200A0635A3090FBF1F29E
:101BD00001FB1200E0633820E07065700020C4E96A
:101BE00016008FE0606C2D281CDB372900D1667051
:101BF000352000F019FCE078382810D16670D4E95F
:101C00001601401F71F100007CD3E06C40F6B83142
:101C1000884205DD002251465846FEF734FF71E048
:101C20000122F8E7657000F06DFF0A2000F000FD6A
:101C3000E06C2D28FFF61DAFA16C8842FADB12E79D
:101C4000E07901284FF020007FF424AF1EE7657093
:101C5000E07910B1012855D10DE0606C00F0BAFBBD
:101C600000283FF436AF5A21A06C00F0B9FB0028E1
:101C70007FF42FAF3CE7606C00F0ACFB28B15A2139
:101C8000E06C00F0ADFB0028F4D0E06C5A2813DAC9
:101C9000A06C5A2810DB04F1300004F1380C07C89E
:101CA0002263E36B63638CE80700E6713720E7602B
:101CB000E070C4F8508025E0206BC4F850802064A8
:101CC000E57135E765700020C4E91600206B2064DB
:101CD000606C2D2805DB352000F0A6FB484600F09F
:101CE000A7FC00F00FFFE06B2064202000F00AFC4E
:101CF000A670E560D4E90C106163E16B2163A16B10
:101D0000C4E90E010A2000F093FCA07801283FF4FA
:101D100084AE24E700000020000C0140FEE770477D
:101D20000907090E002806DA00F00F0000F1E02094
:101D300080F8141D704700F1E02080F8001470470F
:101D40003C4C00253C4E657125710122A571114660
:101D50003046FEF798FE0A20FEF78EFC0022012195
:101D60003046FEF790FE354FDFF8D4802079A0B1E1
:101D7000606AFEF788FB3A464346FEF709FBFEF72A
:101D8000ACFB0146E0612F4800F018FB2D4800F045
:101D900038FBA060411C00D06064A079B0B1E06A5B
:101DA000FEF771FB3A464346FEF7F2FAFEF795FB63
:101DB0000146E0612348203000F000FB214820303C
:101DC00000F01FFBA060411C00D0E0646079B0B15E
:101DD000A06AFEF758FB3A464346FEF7D9FAFEF7EB
:101DE0007CFB0146E0611748103000F0E7FA154827
:101DF000103000F006FBA060411C00D0A0642079E8
:101E000098B1A07988B1607978B1657125710122A6
:101E1000A57111463046FEF736FE0A20FEF72CFC6F
:101E2000002201213046FEF72EFE0A2000F000FCC1
:101E30009CE7000000000020000C01409CC420B082
:101E40007268913FAC010020012000F0F1FBFBE73C
:101E500000F0FABB10B590B0022000900120049071
:101E600010200024059007946846FFF717F800B18A
:101E7000FEE70F20CDE90A040C940D9400210AA876
:101E80000E94FEF7E5FE00B1FEE7FEF7ABFF4FF460
:101E90007A71B0FBF1F0FFF78FF90420FFF780F9BA
:101EA00000220F21501EFEF7A1FE10B010BD000051
:101EB0000D48016841F00101016041680B4A114081
:101EC000416001680A4A11400160016821F48021E3
:101ED0000160416821F4FE0141604FF41F018160FF
:101EE0000449C00308607047001002400000FFF87A
:101EF000FFFFF6FE08ED00E00148FFF75BBA0000C7
:101F0000DC01002007480078012807D10648D0E905
:101F10000012491C42F10002C0E900120348FFF719
:101F200049BA00000100002058000020EC00002009
:101F3000F0B50268164B174C174D4FF0804798428A
:101F400005D0B84203D0A04201D0A84203D122F06C
:101F500070064A683243984205D0B84203D0A04286
:101F600001D0A84203D122F44074CA68224322F06F
:101F700080044A69224302608A68C2620A688262F7
:101F8000984201D10969016301214161F0BD00005E
:101F9000002C0140000400400008004010B5846897
:101FA00042EA032224F47F440A432243826010BDA4
:101FB000826822F070020A4342F007018160704794
:101FC00010B5036A046A24F001040462846924F0F1
:101FD000F00444EA021423F00A020A438461026214
:101FE00010BD10B5036A23F0100303628369046A0D
:101FF00023F4704343EA023224F0A00343EA0111C0
:102000008261016210BD10B5406A0021C185C184A2
:10201000FFF791FA10BD0168CA6822F49072CA6095
:1020200001684A6922F001024A61202180F83A10D1
:10203000704710B590F83A10222901D0022010BD47
:102040008168B1F5805F11D00169002901681FD056
:10205000496801F07F03816A4A1C82620B70C18D5E
:10206000491E0904090CC18518D02BE00269816A58
:10207000002A0268526805D0D2B20A80816A491CDF
:102080008162ECE7C2F308020A80816A891CF7E7E3
:102090004A68816A4B1C83620A70E0E70168CA687B
:1020A00022F02002CA600168CA6822F48072CA6005
:1020B00001684A6922F001024A61202180F83A1041
:1020C000FFF7A2FB002010BD2DE9F0410446006897
:1020D0000169E26821F44051114301612169A0685E
:1020E0000843616908432168CA6841F20C639A4356
:1020F0000243CA6020684169A26921F4407111431A
:1021000041614C4920686425322688423CD1FEF763
:102110007FFE00EBC00101EB001061688900B0FB9D
:10212000F1F7FEF775FE00EBC00101EB00106168EE
:10213000B0468900B0FBF1F0B0FBF5F06FF018018C
:10214000484307EB800106EB0110B0FBF5F000F00F
:10215000F006FEF75DFE00EBC00101EB00106168C8
:102160008900B0FBF1F0B0FBF5F006EB0016FEF7CE
:102170004FFE00EBC00101EB001061688900B0FB6D
:10218000F1F7FEF745FE3BE0FEF732FE00EBC00143
:1021900001EB001061688900B0FBF1F7FEF728FE43
:1021A00000EBC00101EB00106168B0468900B0FB94
:1021B000F1F0B0FBF5F06FF01801484307EB800138
:1021C00006EB0110B0FBF5F000F0F006FEF710FE94
:1021D00000EBC00101EB001061688900B0FBF1F079
:1021E000B0FBF5F006EB0016FEF702FE00EBC001B7
:1021F00001EB001061688900B0FBF1F7FEF7F8FD14
:1022000000EBC00101EB001061688900B0FBF1F048
:10221000B0FBF5F06FF01801484307EB800108EBC5
:102220000110B0FBF5F0216800F00F003044886029
:10223000BDE8F0810038014090F83910212901D023
:10224000022070478168B1F5805F016A0BD04A1C9B
:102250000262026809785160C18C491E0904090CA8
:10226000C1840ED017E009880268C1F308015160EB
:1022700001690029016A02D0491C0162ECE7891C4E
:10228000FBE70168CA6822F08002CA600068C16882
:1022900041F04001C160002070472DE9F0419846AF
:1022A00017460E460446069D1DE0681C1BD02DB146
:1022B000FEF7EEFBA0EB0800A84214D92068C16825
:1022C00021F4D071C1602068416921F001014161B0
:1022D000202084F8390084F83A00002084F838007F
:1022E0000320BDE8F0812068006836EA000004D0D1
:1022F0000020B842D9D00020F3E70120F9E7000020
:1023000008B54FF49673012269461C48FFF720FA7E
:102310001B484278027081784170C17881709DF8C5
:102320000010C170FF2A24D1FF2922D1B0F801107A
:1023300014480160144A1178C9B901681348016052
:102340004FF4B4705A3191FBF0F300FB1311104BB2
:1023500019605A3191FBF0F300FB13110D4B19601A
:102360005A3191FBF0F300FB13100B490860012078
:1023700010700248FFF7E0F808BD00006C01002073
:102380007800002020000020000000203000002005
:1023900034000020380000203C000020FEE702E06E
:1023A00008C8121F08C1002AFAD1704770470020E0
:1023B00001E001C1121F002AFBD170475FF000024B
:1023C00000EB82035B6840F82230521C032AF7DBE3
:1023D000C16070472D2801DB012070470020704745
:1023E000884201DB0120704700207047081AB4289A
:1023F00001DDB43803E010F1B40F01DAB43040422B
:102400007047002310B51A461946521C50F8214057
:10241000491C23440429F8DB12B193FBF2F010BDF0
:102420004FF0FF3010BD0000F8B5324A04460546B3
:10243000116C106AFFF7DAFF010000D54842D36C37
:102440001E2B46DB926C1E2A41DB10B32D283CDA92
:10245000294E4FF07E570029C0F12D001ADA0028CE
:1024600000DA4042FEF706F83146FDF753FF3946E1
:10247000FDF71BFF06462046FDF7FCFF04463146EC
:10248000FDF716FF01462046FDF70CFFFEF70CF89E
:1024900004461FE0002800DA4042FDF7EBFF31461A
:1024A000FDF738FF3946FDF700FF05462046FDF7EA
:1024B000E1FF06462946FDF7FBFE01463046FDF7E3
:1024C000F1FEFDF7F1FF054604E0002901DA0024E2
:1024D00000E0002509A04FF47A73006800908DF8A1
:1024E00001508DF80340042269460548FFF78DF935
:1024F000F8BD00000000002000003442C500CD00FF
:102500002C01002008B50CA14FF47A7309680091E2
:102510008DF801008DF80300042269460748FFF793
:1025200074F9074A116C106AFFF760FF0028F9DDA3
:1025300000F0E8FA08BD0000C100CA002C0100202C
:102540000000002090B0FEF7B1FAFFF783FCFFF720
:10255000BBF930482E49002401604FF49641C0E990
:1025600001140C26C460C0E904468461C461FFF70D
:102570006BF800B1FEE7274D2748403528604FF43F
:102580001650C5E90104EC60C5E90446AC61284673
:10259000EC61FFF759F800B1FEE7FFF7F9F91422F3
:1025A0001E496846FDF71AFE0021684600F056F8FD
:1025B0001B4C1A4914222061143105A8FDF70EFEA8
:1025C000002105A800F04AF814496061142228315E
:1025D0000AA8FDF703FE00210AA800F03FF8A06159
:1025E000FEF75EF82868C16841F02001C160094823
:1025F0004038FEF759FE40F6B830FEF741F900F0DA
:1026000081FA4FF47A70FEF73BF900F018F8FEE714
:10261000003801402C0100200044004050300008E8
:102620000000002001460020842900D0C81C70470B
:1026300010B500B9012000F02BFB002010BD10B533
:1026400000F04CFB002010BD10B500F02DFC01285F
:1026500003D0BDE8104000F0E5BB10BD3EB5044618
:102660000D46B0F90800FFF7DDFF02A9CDE9000132
:10267000208A2B4682B2D4E9001000F0E9FB012841
:1026800001D000203EBD02983EBD00002DE9F04182
:10269000184C0F460546E6682068001D00F042FA17
:1026A00038B9206890F82C100120884021698143B6
:1026B0002161681C07D137B12168BDE8F0410E489F
:1026C000091D00F067BA20683544B54245602168AD
:1026D00005D2A06BBDE8F041091D00F043BA606B64
:1026E000091D00F03FFAA06A854200D2A562BDE84C
:1026F000F0810000B0000020F80E00202DE9F0412C
:10270000054600F053FA2E4CA068401CA0602068DB
:102710002C4F10B1606940B32DE02560A0680128FE
:1027200029D1002606EB860007EB800000F00CFAAA
:10273000761C072EF6D323488C3000F005FA21488A
:10274000A03000F001FA1F48B43000F0FDF91D4838
:10275000C83000F0F9F91B48DC3000F0F5F91948F1
:102760008C3060631430A06305E02068E96AC06AB9
:10277000884200D82560606A401C6062E96A0120D6
:10278000226988401043206101EB810007EB800043
:10279000291D00F0FFF900F029FA606900280CD02B
:1027A0002068E96AC06A884207D207494FF0805022
:1027B0000860BFF34F8FBFF36F8FBDE8F08100005B
:1027C000B00000201C0E002004ED00E070B5114E9A
:1027D000114C17E000F0B6FA3068B8B100F0D6FB43
:1027E00000F0E4F9F068C568281D00F09BF9A068C6
:1027F000401EA0606068401E606000F0F7F9284647
:1028000000F00CF860680028E4D170BD00F0BEFB59
:10281000F8E70000E40E0020B000002010B50446E8
:10282000006B00F0F7F92046BDE8104000F0F2B967
:1028300010484FF44061420706D0C01D0D4920F0FA
:102840000700411AC1F540610B4A00230144C2E967
:1028500000030839103A21F0070111604B600B604A
:102860000B1AC0E9001393604FF000405360D06032
:10287000704700001C0200209C000020074C4FF015
:102880008056074DFFF7A2FF20680128FAD92E6075
:10289000BFF34F8FBFF36F8FF4E700001C0E0020D3
:1028A00004ED00E02DE9F0479A46DDE90984814610
:1028B0006FF00303206B03EB82021044089D20F0AD
:1028C0000706700707D0502080F31188BFF34F8FA1
:1028D000BFF36F8FFEE723180A5C83F834200A5C8D
:1028E00012B1401C1028F6D3002784F84370072D3E
:1028F00000D30625E562C4E91157201D00F02FF929
:1029000004F1180000F02BF92461C5F1070064629E
:10291000A061E76484F8507052464946304600F0A2
:10292000BFF82060B8F1000F01D0C8F80040BDE842
:10293000F087000030B5114900E011460A68824274
:10294000FBD34B685C18844203D14068184448604C
:10295000084643681C18944209D1084C103C24686E
:10296000A24209D052681A4442600A6812680260A2
:10297000814200D0086030BD0460F9E79C0000206F
:102980000648416B096829B1416BC968C968496843
:10299000816270474FF0FF31FAE70000B00000207D
:1029A00008484068401C4FF0500080F3118804D064
:1029B000BFF34F8FBFF36F8FFEE7BFF34F8FBFF3B0
:1029C0006F8FFEE7A40000202DE9F04105460027A7
:1029D00000F0B8F9314E306808B9FFF729FFF06808
:1029E00005424BD1C5B3083568070ED005F0070086
:1029F000C0F108000544680707D0502080F3118813
:102A0000BFF34F8FBFF36F8FFEE72DB37068854222
:102A100034D82248103001460C6801E020460C46AC
:102A20006168A94202D221680029F7D131688C423D
:102A300024D007682168016060680837411B1029AD
:102A40000FD96019420708D0502080F31188BFF3D6
:102A50004F8FBFF36F8FFEE710E041606560FFF7B7
:102A600069FF61687068401A7060B268904200D275
:102A7000B060F06801430020C4E9000100F086FA6C
:102A8000780707D0502080F31188BFF34F8FBFF332
:102A90006F8FFEE73846BDE8F08100008C00002013
:102AA00010B5031F4FF080741C601B1F21F0010143
:102AB0001960191F024B0B60143940380A6010BDB1
:102AC000A129000808B50CA14FF47A730968009198
:102AD0008DF801008DF80300042269460748FEF7CF
:102AE00094FE074A116C106AFFF780FC0028F9DA9F
:102AF00000F008F808BD0000C900C2002C01002049
:102B00000000002008B505A04FF47A73006800901B
:102B1000042269460248FEF778FE08BDC400CC00D6
:102B20002C010020D0E9013201699A60D0E901232B
:102B30005A604A68824201D182684A60002202617A
:102B40000868401E0860704700F108014FF0FF322E
:102B5000C0E90112C16001610021016070470021DC
:102B60000161704730B50B685A1C02D000F10802B1
:102B700002E0026904E02246546825689D42FAD9C1
:102B800053684B6099608A60516008610168491C14
:102B9000016030BD42684A6093688B6093685960F9
:102BA000916008610168491C01607047502080F302
:102BB0001188BFF34F8FBFF36F8F0A494868401CDD
:102BC000486001280CD10848006810F0FF0F07D0BA
:102BD000502080F31188BFF34F8FBFF36F8FFEE754
:102BE00070470000A400002004ED00E00849486898
:102BF00028B1401E486001D180F3118870475020F1
:102C000080F31188BFF34F8FBFF36F8FFEE7000093
:102C1000A400002070B5002827D0144DA0F10804AE
:102C20006168E868014207D1502080F31188BFF342
:102C30004F8FBFF36F8FFEE722683AB1502080F3C9
:102C40001188BFF34F8FBFF36F8FFEE78143616041
:102C500000F078F860686968084468602046FFF70B
:102C600069FEBDE8704000F091B970BD8C00002095
:102C700006484FF47A710068B0FBF1F14FF0E020A4
:102C8000491E416107210161704700008800002052
:102C900010B5020014D00F48006B38B1502080F3FB
:102CA0001188BFF34F8FBFF36F8FFEE700F04AF834
:102CB00000211046FFF7EAFC00F068F9002807D170
:102CC00005494FF080500860BFF34F8FBFF36F8FFF
:102CD00010BD0000B000002004ED00E01CB5154858
:102CE0000024CDE900402346802213A1144800F0BF
:102CF000AFF8012809D0401C1AD1502080F3118868
:102D0000BFF34F8FBFF36F8FFEE7502080F3118822
:102D1000BFF34F8FBFF36F8F06484FF0FF312C3852
:102D2000816201214161C460BDE81C4000F040B8EF
:102D30001CBD0000DC00002049444C4500000000A0
:102D40007D2800080248016B491C016370470000A0
:102D5000B00000201448016B11B10121C16170471E
:102D60000021C1610169B1FA81F1C1F11F0101EBDB
:102D700081020E4951F822306BB101EB820101F161
:102D800008034A6852684A609A4201D152684A6010
:102D9000D16801607047502080F31188BFF34F8FD6
:102DA000BFF36F8FFEE70000B00000201C0E002074
:102DB0001CB5194908780190FF20087008788DF833
:102DC00000009DF80000154A00F050001070072028
:102DD000906005E09DF800305B008DF80030401EEB
:102DE0009DF800301B06F5D4000200F4E06090600E
:102DF000019808700A48016841F470010160016897
:102E000041F070410160FFF733FF00205060FDF793
:102E100089F900201CBD000000E400E0A4000020AF
:102E200020ED00E010B5502080F31188BFF34F8FE4
:102E3000BFF36F8F00F046F818B104494FF080508F
:102E40000860002080F3118810BD000004ED00E050
:102E50002DE9FF5F8346DDE90E87994616468A46CF
:102E60009000FFF7B1FD05001AD05420FFF7ACFD2C
:102E7000040012D025630021CDE90241CDE900878D
:102E80004B46324651465846FFF70CFD2046FFF7A9
:102E900035FC012004B0BDE8F09F2846FFF7BAFEDC
:102EA0004FF0FF30F6E700000548416919B1006BAB
:102EB00018B10020704701207047022070470000C1
:102EC000B00000202DE9F0412E4C0027206B40B1CE
:102ED000A069401CA061E06900B101273846BDE847
:102EE000F081E668761CE66013D1606B006838B14B
:102EF000502080F31188BFF34F8FBFF36F8FFEE731
:102F0000606BA16B6163A063206A401C2062FFF7C5
:102F100037FDA06ADFF87080864209D3606B0068D5
:102F200080B1606BC068C568686886420DD2A062D7
:102F30002068C06A00EB800158F821000128CAD936
:102F40000127C8E74FF0FF30F1E7281DFFF7EAFD42
:102F5000A86A18B105F11800FFF7E4FDE86A01213D
:102F6000226981401143216100EB800108EB81005F
:102F7000291DFFF70FFEE86A2168C96A8842CDD390
:102F80000127CBE7B00000201C0E00202DE9F04700
:102F90002C4D00242746286B38B1FFF707FE286B1D
:102FA000401E2863286B40B146E0502080F3118812
:102FB000BFF34F8FBFF36F8FFEE7A968224E01204A
:102FC000D1B3A6F1B40980463068E8B1F068C468AE
:102FD00004F11800FFF7A6FD201DFFF7A3FDE06A2E
:102FE0002A6908FA00F11143296100EB800109EB1D
:102FF0008100211DFFF7CEFDE06A2968C96A884279
:10300000E2D3C5F81C80DFE70CB1FFF7B9FCAC696F
:1030100044B14646FFF756FF00B1EE61641EF9D198
:103020000020A861E86938B108490127380708601D
:10303000BFF34F8FBFF36F8FFFF7D8FD3846BDE862
:10304000F0870000B0000020D00E002004ED00E06A
:10305000C0300008491E0008000000000000000009
:1030600080000000A4300008411D0008000000009E
:103070000000000080000000B4300008E9190008DA
:1030800000000000000000008000000000000000C0
:103090000000000001020304060708090000000008
:1030A000010203045265616444697374466F727768
:1030B000617264004D61696E4D6F766500000000BD
:1030C00064656661756C745461736B00EC30000864
:1030D00000000020EC0000009E230008D83100080A
:1030E000EC00002024120000AE23000800000100C4
:1030F00000000000000000000000000000000000D0
:1031000000000000000000000000000000000000BF
:1031100000000000000000000000000000000000AF
:10312000000000000000000000000000000000009F
:10313000000000000000000000000000000000008F
:10314000000000000000000000000000000000007F
:10315000000000000000000000000000000000006F
:10316000000000000000000001000000100000004E
:103170000000000000A24A0400000000000000005F
:10318000000000000000000000000000000000003F
:1031900000000000AAAAAAAA000000000000000087
:1031A000000000000000000000000000000000001F
:1031B000000000000000000000000000000000000F
:1031C00000000000000000000000000000000000FF
:0831D0000000000000000000F7
:04000005080000ED02
:00000001FF
